:1000000056EF05F00000000035EF05F0000000009D
:0C001000000000000000000094EF05F06C
:10001C000B840BAE19EF00F0010E036E026A016A3D
:0A002C00006A0A360232FF0E1200CD
:080036000AAE029E000E12004A
:0E003E00ACB202D00000FCD75EC0ADFF1200D5
:0E004C00026A016A006A086A036A000E120066
:10005A00016A026A000E025C02E1320E015C17E2DA
:10006A00838A020E0C6E080E0D6E0D2EFED70C2E14
:10007A00FCD70000839A190E0C6EEE0E0D6E0D2E33
:10008A00FED70C2EFCD70000014A022AE3D7120041
:10009A000C6A0E6A0250D8A466EF00F001C002F0A2
:1000AA0000C001F0006A0E860250D8A466EF00F084
:1000BA0001C002F0016A0E960E880250D8B478EF99
:1000CA0000F00E50035ED8A4D8A07DEF00F0D890BF
:1000DA0002BE82EF00F0003601360236032E6DEFC3
:1000EA0000F07DEF00F0010E0C6EABDF85EF00F043
:1000FA00020E0C6E8EDF85EF00F0040E0C6E96DF9A
:02010A001200E1
:10010C0059C05EF096DF5AC05EF093DF5BC05EF0C4
:10011C0090DF5CC05EF08DDF5DC05EF08ADF1200A8
:0A012C00000E9EBA010E006E1200D4
:10013600AECF01F0ABA202D0AB98AB8801C000F005
:020146001200A5
:10014800016A026A000E025C02E1320E015C17E2EB
:10015800838A020E0C6EF10E0D6E0D2EFED70C2E3C
:10016800FCD700000000839A190E0C6E050E0D6E68
:100178000D2EFED70C2EFCD7014A022AE3D74D508C
:10018800300A0DE04D50310A0AE0010E256E000ECE
:10019800266E010E1E6E000E1F6E4DC024F012005A
:0A01A800070E0D6E0D2EFED712009B
:1001B20047504D0A14E14850300A10E14950310AC3
:1001C2000DE1300E476E2B0E596E4D0E5A6E300EEB
:1001D2005B6E310E5C6E2B0E5D6E97DF0BD14B505A
:1001E200490A54E14C50410A0BE11E6A1F6A4D5004
:1001F200310A02E1839004D04D50300AD8B4838092
:100202004C50420A0BE11E6A1F6A4D50310A02E14C
:10021200839204D04D50300AD8B483824C50430AA2
:100222000BE11E6A1F6A4D50310A02E1839404D029
:100232004D50300AD8B483844C50440A0BE11E6AF4
:100242001F6A4D50310A02E1839604D04D50300AA4
:10025200D8B483864C50450A0BE11E6A1F6A4D5082
:10026200310A02E1839804D04D50300AD8B4838811
:10027200300E4B6E2B0E596E540E5A6E450E5B6E3F
:10028200500E5C6E2B0E5D6E40DFB4D04B50500AA8
:100292001AE14C50460A09E14D50310A02E1DCDE16
:1002A20004D04D50300A01E14EDF300E4B6E2B0E62
:1002B200596E540E5A6E450E5B6E500E5C6E2B0ECE
:1002C2005D6E23DF97D04B50440A37E14C50470A0A
:1002D20026E14D50340A04E1BB6A0C0EBA6E1FD0FF
:1002E2004D50330A05E1080EBB6E0C0EBA6E17D0E4
:1002F2004D50320A05E10F0EBB6E3C0EBA6E0FD0A6
:100302004D50310A05E1170EBB6E2C0EBA6E07D0A6
:100312004D50300A04E1FF0EBB6E3C0EBA6E300E39
:100322004B6E2B0E596E540E5A6E450E5B6E500E6E
:100332005C6E2B0E5D6EE9DE5DD04B50410A1EE114
:100342004C50480A0DE14D50310A05E1010E206E74
:10035200000E216E05D04D50300A02E1206A216A5A
:10036200300E4B6E2B0E596E540E5A6E450E5B6E4E
:10037200500E5C6E2B0E5D6EC8DE3CD04B50430AB5
:1003820021E14C50310A07E1010E1E6E000E1F6E74
:100392004DC024F009D04C50300A06E1030E1E6E07
:1003A200000E1F6E4DC024F0300E4B6E2B0E596E98
:1003B200540E5A6E450E5B6E500E5C6E2B0E5D6EC9
:1003C200A4DE18D04B50480A15E14C50310A02E124
:1003D20043DE04D04C50300A01E1B5DE4B6A2B0EED
:1003E200596E540E5A6E450E5B6E500E5C6E2B0E9D
:0603F2005D6E8BDE1200BF
:1003F800576A586A555241E05550FF0AD8A4550625
:1004080091DE0050000A01E1FBD791DE00C056F0F2
:1004180057505124E16E000E5220E26E00C0E6FFF4
:10042800572A58505324E96E000E5420EA6EEE50B5
:10043800561802E1582A09D0586A53C0E9FF54C037
:10044800EAFFEE505618D8B4582A58505324E96E8B
:10045800000E5420EA6EEE50000A0EE15850575C28
:10046800006E016A000E015A00505124E16E0150DD
:100478005220E26EE66A06D0BDD751C0E1FF52C0F5
:06048800E2FFE66A12002B
:10048E000A6A0350D8A40A800750D8A40A820A50D8
:10049E00D8B4AAEF02F0030AD8B463EF02F00AB0A0
:1004AE005EEF02F006AEA8EF02F0A6EF02F002AE8B
:1004BE00A6EF02F0A8EF02F00250800B0A6E029E29
:1004CE000650800B069E0A18D8B474EF02F00A503C
:1004DE00D8B4A6EF02F0A8EF02F00750035CD8B430
:1004EE007EEF02F0D8A09AEF02F0A0EF02F00650D5
:1004FE00025CD8B488EF02F0D8A09AEF02F0A0EF19
:10050E0002F00550015CD8B492EF02F0D8A09AEF39
:10051E0002F0A0EF02F00450005CD8B4AAEF02F093
:10052E00D8B0A0EF02F00A52D8B4A8EF02F0A6EFAE
:10053E0002F00A52D8B4A6EF02F0A8EF02F0D8806B
:0E054E001200D8901200D880D884120012003B
:10055C000050086E0150006E016A026A036A0B6A51
:10056C000C6A960E036E0A6A00C001F008C000F017
:08057C00086A026A8CDD12001E
:10058400C26A070EC012C08E50C000F00036009040
:10059400003600900050C212C28004DEC282C2A2A1
:1005A40001D0FDD7C4CF01F0006AC3500012000E81
:0605B4000112C2901200CA
:1005BA003E0E2F6E000E306E5E0E316E000E326EE3
:1005CA00360E3F6E010E406E000E416E000E426EF8
:1005DA002C0E3B6E010E3C6E000E3D6E000E3E6E02
:1005EA00FF0E376EFF0E386E000E396E000E3A6E31
:1005FA00AC8A900EAB6E948E949C9EAA03D0AECF1A
:06060A0000F0FBD7120016
:10061000000E211802E1010E20184CE1506AB2DFF1
:100620009DDF00C043F001C044F002C045F003C0AC
:1006300046F000C004F001C005F002C006F003C09F
:1006400007F0000E006E000E016E7A0E026E870E2D
:10065000036E1DDF010ED8B0000E006E005207E1E0
:10066000000E231802E1010E221801E022D0010E33
:10067000226E000E236E8480030E0B6E8A0E0C6EAB
:10068000550E0D6E0D2EFED70C2EFCD70B2EFAD765
:10069000000000008490030E0B6E8A0E0C6E550E47
:1006A0000D6E0D2EFED70C2EFCD70B2EFAD70000A8
:1006B000000009D0000E211802E1000E201803E10D
:0806C000226A236A8480120003
:1006C800000E1F1802E1010E1E18D8A432D1020E26
:1006D800506E54DF3FDF00C033F001C034F002C079
:1006E80035F003C036F0000E046E000E056E160ECF
:1006F800066E880E076EC7DE010ED8B0000E006EBB
:100708000052D8B49FD02450300A16E18390000ECE
:10071800261802E1010E25180FE1F28A000E2818AA
:1007280002E1010E271808E18380256A266A276AF4
:10073800286A1E6A1F6AF29A2450310A16E18392C7
:10074800000E261802E1010E25180FE1F28A000EAC
:10075800281802E1010E271808E18382256A266A13
:10076800276A286A1E6A1F6AF29A2450320A16E11A
:100778008394000E261802E1010E25180FE1F28A73
:10078800000E281802E1010E271808E18384256A63
:10079800266A276A286A1E6A1F6AF29A2450330A50
:1007A80016E18396000E261802E1010E25180FE1C6
:1007B800F28A000E281802E1010E271808E1838644
:1007C800256A266A276A286A1E6A1F6AF29A2450CE
:1007D800340A16E18398000E261802E1010E251846
:1007E8000FE1F28A000E281802E1010E271808E12D
:1007F8008388256A266A276A286A1E6A1F6AF29A07
:100808002450350A1EE183908392839483968398BB
:10081800000E261802E1010E251813E1F28A000ED7
:10082800281802E1010E27180CE183808382838453
:1008380083868388256A266A276A286A1E6A1F6A49
:10084800F29A76D033C004F034C005F035C006F013
:1008580036C007F0000E006E000E016E160E026E16
:10086800880E036E10DE010ED8B0000E006E005226
:10087800D8B45ED02450300A0CE18380000E2618CC
:1008880002E1010E251805E1256A266A1E6A1F6A1B
:10089800F29A2450310A0CE18382000E261802E1F4
:1008A800010E251805E1256A266A1E6A1F6AF29A52
:1008B8002450320A0CE18384000E261802E1010E4E
:1008C800251805E1256A266A1E6A1F6AF29A2450CD
:1008D800330A0CE18386000E261802E1010E251862
:1008E80005E1256A266A1E6A1F6AF29A2450340AAC
:1008F8000CE18388000E261802E1010E251805E197
:10090800256A266A1E6A1F6AF29A2450350A10E17F
:1009180083808382838483868388000E261802E17D
:10092800010E251805E1256A266A1E6A1F6AF29AD1
:1009380065D0000E1F1802E1030E1E18D8A45ED061
:100948002450300A0CE18380000E261802E1010EC3
:10095800251805E1256A266A1E6A1F6AF29A24503C
:10096800310A0CE18382000E261802E1010E2518D7
:1009780005E1256A266A1E6A1F6AF29A2450320A1D
:100988000CE18384000E261802E1010E251805E10A
:10099800256A266A1E6A1F6AF29A2450330A0CE1F5
:1009A8008386000E261802E1010E251805E1256A46
:1009B800266A1E6A1F6AF29A2450340A0CE1838858
:1009C800000E261802E1010E251805E1256A266A9F
:1009D8001E6A1F6AF29A2450350A10E183808382C6
:1009E800838483868388000E261802E1010E251869
:0E09F80005E1256A266A1E6A1F6AF29A12003D
:100A060096EC00F0005225E09BEC00F000C04FF0A1
:100A16000050280A0EE14B0E516E000E526E2B0E40
:100A2600536E000E546E040E556EE3DCD9EC00F0E6
:100A360010D04F505B0A0DE1470E516E000E526EFC
:100A4600290E536E000E546E040E556ED2DCD9EC90
:040A560000F012009A
:100A5A000900F5CFE6FF0006FBE10106F9E1120005
:100A6A0000C01DF0F2A41AD0F294000E2E1802E172
:100A7A00040E2D1803E02D4A2E2A0CD0000E2E1833
:100A8A0002E1040E2D1806E12D6A2E6A010E276E68
:100A9A00000E286E1B0ED76E1E0ED66E1DC000F0FD
:020AAA00110039
:100AAC00C1EC05F0190EAF6EAC8481DD820E0C6EBC
:100ABC00DD0E0D6E0D2EFED70C2EFCD700000000A7
:100ACC00956A83808382838483868388838A838CDC
:100ADC00838E949296909692849284900C0EC16E12
:100AEC00928092829284D08EF28EF28C870ED56E8A
:100AFC00F294F29AF1841B0ED76E1E0ED66E9F9A4C
:100B0C009E9A9D8A070ECA6E1F0ECB6EFF0EBB6E91
:0C0B1C003C0EBA6E77DDD2DDFDD7FFD7AE
:100B280000C01CF001C01BF002C01AF00CC019F084
:100B38000DC018F0156ED8CF16F0E0CF17F09EAAAA
:100B480002D09E9A5CDF1750E06E1650D86E153AA8
:100B580015381CC000F01BC001F01AC002F019C003
:080B68000CF018C00DF01000A4
:100B820010EE1EF0110E006E010E016E700EF66E6A
:0E0B92000B0EF76E000EF86E2DEC05F0120043
:020B7000000083
:020B7200000081
:020B740000007F
:010B7600007E
:020B770000007C
:020B790000007A
:020B7B005D001B
:020B7D0029004D
:020B7F00000074
:020000040030CA
:0D000100011F1EFF8381FF0FC00FE00F40A5
:00000001FF
