:1000000079EF05F00000000058EF05F00000000057
:0C0010000000000000000000B5EF05F04B
:10001C000B840BAE19EF00F0010E036E026A016A3D
:0A002C00006A0A360232FF0E1200CD
:080036000AAE029E000E12004A
:0E003E00ACB202D00000FCD760C0ADFF1200D3
:0E004C00026A016A006A086A036A000E120066
:10005A00016A026A000E025C02E1320E015C17E2DA
:10006A00838A020E0C6EF10E0D6E0D2EFED70C2E2B
:10007A00FCD700000000839A190E0C6E050E0D6E57
:10008A000D2EFED70C2EFCD7014A022AE3D7120006
:10009A000C6A0E6A0250D8A466EF00F001C002F0A2
:1000AA0000C001F0006A0E860250D8A466EF00F084
:1000BA0001C002F0016A0E960E880250D8B478EF99
:1000CA0000F00E50035ED8A4D8A07DEF00F0D890BF
:1000DA0002BE82EF00F0003601360236032E6DEFC3
:1000EA0000F07DEF00F0010E0C6EABDF85EF00F043
:1000FA00020E0C6E8EDF85EF00F0040E0C6E96DF9A
:02010A001200E1
:10010C005BC060F096DF5CC060F093DF5DC060F0B8
:10011C0090DF5EC060F08DDF5FC060F08ADF1200A0
:0A012C00000E9EBA010E006E1200D4
:10013600AECF01F0ABA202D0AB98AB8801C000F005
:020146001200A5
:10014800016A026A000E025C02E1320E015C17E2EB
:10015800838A030E0C6EDA0E0D6E0D2EFED70C2E52
:10016800FCD70000839A180E0C6E1C0E0D6E0D2E17
:10017800FED70C2EFCD70000014A022AE3D74B50C9
:10018800300A0DE04B50310A0AE0010E256E000ED0
:10019800266E010E1E6E000E1F6E4BC024F012005C
:0A01A800070E0D6E0D2EFED712009B
:1001B2004D504D0A14E14E50300A10E14F50310AB1
:1001C2000DE1300E4D6E2B0E5B6E4D0E5C6E300EE1
:1001D2005D6E310E5E6E2B0E5F6E97DF22D149503F
:1001E200490AD8A46AD04A50410A0BE11E6A1F6A22
:1001F2004B50310A02E1839004D04B50300AD8B4FC
:1002020083804A50420A0BE11E6A1F6A4B50310A30
:1002120002E1839204D04B50300AD8B483824A5010
:10022200430A0BE11E6A1F6A4B50310A02E18394B2
:1002320004D04B50300AD8B483844A50440A0BE1AC
:100242001E6A1F6A4B50310A02E1839604D04B505A
:10025200300AD8B483864A50450A0BE11E6A1F6AE7
:100262004B50310A02E1839804D04B50300AD8B483
:1002720083884A50460A13E11E6A1F6A4B50310AAC
:1002820006E18390839283948396839808D04B509F
:10029200300A05E183808382838483868388300EDB
:1002A200496E2B0E5B6E540E5C6E450E5D6E500EEB
:1002B2005E6E2B0E5F6E29DFB4D04950500A1AE1F0
:1002C2004A50470A09E14B50300A02E1C5DE04D028
:1002D2004B50310A01E137DF300E496E2B0E5B6E57
:1002E200540E5C6E450E5D6E500E5E6E2B0E5F6E92
:1002F2000CDF97D04950440A37E14A50480A26E1B8
:100302004B50340A04E1BB6A0C0EBA6E1FD04B503C
:10031200330A05E1080EBB6E0C0EBA6E17D04B50B5
:10032200320A05E10F0EBB6E3C0EBA6E0FD04B5077
:10033200310A05E1170EBB6E2C0EBA6E07D04B5078
:10034200300A04E1FF0EBB6E3C0EBA6E300E496EEF
:100352002B0E5B6E540E5C6E450E5D6E500E5E6E25
:100362002B0E5F6ED2DE5DD04950410A1EE14A502B
:10037200490A0DE14B50310A05E1010E206E000ED3
:10038200216E05D04B50300A02E1206A216A300EFC
:10039200496E2B0E5B6E540E5C6E450E5D6E500EFA
:1003A2005E6E2B0E5F6EB1DE3CD04950430A21E1F6
:1003B2004A50310A07E1010E1E6E000E1F6E4BC03D
:1003C20024F009D04A50300A06E1030E1E6E000ED8
:1003D2001F6E4BC024F0300E496E2B0E5B6E540E16
:1003E2005C6E450E5D6E500E5E6E2B0E5F6E8DDE88
:1003F20018D04950480A15E14A50300A02E12CDE71
:1004020004D04A50310A01E19EDE496A2B0E5B6E2E
:10041200540E5C6E450E5D6E500E5E6E2B0E5F6E60
:0404220074DE120072
:10042600596A5A6A575241E05750FF0AD8A45706EC
:100436007ADE0050000A01E1FBD77ADE00C058F0F0
:1004460059505324E16E000E5420E26E00C0E6FFC0
:10045600592A5A505524E96E000E5620EA6EEE507F
:10046600581802E15A2A09D05A6A55C0E9FF56C0FF
:10047600EAFFEE505818D8B45A2A5A505524E96E55
:10048600000E5620EA6EEE50000A0EE15A50595CF4
:10049600006E016A000E015A00505324E16E0150AD
:1004A6005420E26EE66A06D0BDD753C0E1FF54C0C1
:0604B600E2FFE66A1200FD
:1004BC000A6A0350D8A40A800750D8A40A820A50AA
:1004CC00D8B4C1EF02F0030AD8B47AEF02F00AB044
:1004DC0075EF02F006AEBFEF02F0BDEF02F002AE18
:1004EC00BDEF02F0BFEF02F00250800B0A6E029ECD
:1004FC000650800B069E0A18D8B48BEF02F00A50F7
:10050C00D8B4BDEF02F0BFEF02F00750035CD8B4D3
:10051C0095EF02F0D8A0B1EF02F0B7EF02F0065061
:10052C00025CD8B49FEF02F0D8A0B1EF02F0B7EFA5
:10053C0002F00550015CD8B4A9EF02F0D8A0B1EFDD
:10054C0002F0B7EF02F00450005CD8B4C1EF02F037
:10055C00D8B0B7EF02F00A52D8B4BFEF02F0BDEF3B
:10056C0002F00A52D8B4BDEF02F0BFEF02F0D8800F
:0E057C001200D8901200D880D884120012000D
:10058A000050086E0150006E016A026A036A0B6A23
:10059A000C6A960E036E0A6A00C001F008C000F0E9
:0805AA00086A026A75DD120007
:1005B200C26A070EC012C08E52C000F00036009010
:1005C200003600900050C212C280EDDDC282C2A28B
:1005D20001D0FDD7C4CF01F0006AC3500012000E53
:0605E2000112C29012009C
:1005E8003E0E316E000E326E600E336E000E346EAB
:1005F800360E416E010E426E000E436E000E446EC2
:100608002C0E3D6E010E3E6E000E3F6E000E406ECB
:10061800FF0E396EFF0E3A6E000E3B6E000E3C6EFA
:10062800AC8A900EAB6E948E949C9EAA03D0AECFEB
:0606380000F0FBD71200E8
:10063E00000E211802E1010E20184CE1526AB2DFC1
:10064E009DDF00C045F001C046F002C047F003C078
:10065E0048F000C004F001C005F002C006F003C06F
:10066E0007F0000E006E000E016E7A0E026E870EFF
:10067E00036E1DDF010ED8B0000E006E005207E1B2
:10068E00000E231802E1010E221801E022D0010E05
:10069E00226E000E236E8480030E0B6E8A0E0C6E7D
:1006AE00550E0D6E0D2EFED70C2EFCD70B2EFAD737
:1006BE00000000008490030E0B6E8A0E0C6E550E19
:1006CE000D6E0D2EFED70C2EFCD70B2EFAD700007A
:1006DE00000009D0000E211802E1000E201803E1DF
:0806EE00226A236A84901200C5
:1006F600000E1F1802E1010E1E18D8A432D1020EF8
:10070600526E54DF3FDF00C035F001C036F002C044
:1007160037F003C038F0000E046E000E056E160E9C
:10072600066E880E076EC7DE010ED8B0000E006E8C
:100736000052D8B49FD02450300A16E18390000EA0
:10074600261802E1010E25180FE1F28A000E28187C
:1007560002E1010E271808E18380256A266A276AC6
:10076600286A1E6A1F6AF29A2450310A16E1839299
:10077600000E261802E1010E25180FE1F28A000E7E
:10078600281802E1010E271808E18382256A266AE5
:10079600276A286A1E6A1F6AF29A2450320A16E1EC
:1007A6008394000E261802E1010E25180FE1F28A45
:1007B600000E281802E1010E271808E18384256A35
:1007C600266A276A286A1E6A1F6AF29A2450330A22
:1007D60016E18396000E261802E1010E25180FE198
:1007E600F28A000E281802E1010E271808E1838616
:1007F600256A266A276A286A1E6A1F6AF29A2450A0
:10080600340A16E18398000E261802E1010E251817
:100816000FE1F28A000E281802E1010E271808E1FE
:100826008388256A266A276A286A1E6A1F6AF29AD8
:100836002450350A1EE1839083928394839683988D
:10084600000E261802E1010E251813E1F28A000EA9
:10085600281802E1010E27180CE183808382838425
:1008660083868388256A266A276A286A1E6A1F6A1B
:10087600F29A76D035C004F036C005F037C006F0DF
:1008860038C007F0000E006E000E016E160E026EE6
:10089600880E036E10DE010ED8B0000E006E0052F8
:1008A600D8B45ED02450300A0CE18380000E26189E
:1008B60002E1010E251805E1256A266A1E6A1F6AED
:1008C600F29A2450310A0CE18382000E261802E1C6
:1008D600010E251805E1256A266A1E6A1F6AF29A24
:1008E6002450320A0CE18384000E261802E1010E20
:1008F600251805E1256A266A1E6A1F6AF29A24509F
:10090600330A0CE18386000E261802E1010E251833
:1009160005E1256A266A1E6A1F6AF29A2450340A7D
:100926000CE18388000E261802E1010E251805E168
:10093600256A266A1E6A1F6AF29A2450350A10E151
:1009460083808382838483868388000E261802E14F
:10095600010E251805E1256A266A1E6A1F6AF29AA3
:1009660065D0000E1F1802E1030E1E18D8A45ED033
:100976002450300A0CE18380000E261802E1010E95
:10098600251805E1256A266A1E6A1F6AF29A24500E
:10099600310A0CE18382000E261802E1010E2518A9
:1009A60005E1256A266A1E6A1F6AF29A2450320AEF
:1009B6000CE18384000E261802E1010E251805E1DC
:1009C600256A266A1E6A1F6AF29A2450330A0CE1C7
:1009D6008386000E261802E1010E251805E1256A18
:1009E600266A1E6A1F6AF29A2450340A0CE183882A
:1009F600000E261802E1010E251805E1256A266A71
:100A06001E6A1F6AF29A2450350A10E18380838297
:100A1600838483868388000E261802E1010E25183A
:0E0A260005E1256A266A1E6A1F6AF29A12000E
:100A340096EC00F0005231E09BEC00F000C051F065
:100A4400000E2A1802E1010E291813E15150280A58
:100A54000DE1490E536E000E546E2B0E556E000EB2
:100A6400566E040E576EDDDCD9EC00F0296A2A6A52
:100A740014D051505B0A11E14D0E536E000E546EAA
:100A84002D0E556E000E566E040E576ECADCD9EC50
:0C0A940000F0010E296E000E2A6E120008
:100AA0000900F5CFE6FF0006FBE10106F9E11200BF
:100AB00000C01DF0F2A41AD0F294000E301802E12A
:100AC000040E2F1803E02F4A302A0CD0000E3018E5
:100AD00002E1040E2F1806E12F6A306A010E276E1C
:100AE000000E286E1B0ED76E1E0ED66E1DC000F0B7
:020AF0001100F3
:100AF200E3EC05F0190EAF6EAC8475DD820E0C6E60
:100B0200DD0E0D6E0D2EFED70C2EFCD70000000060
:100B1200956A83808382838483868388838A838C95
:100B2200838E9492969084900C0EC16E92809282E3
:100B32009284D08EF28EF28C870ED56EF294F29A57
:100B4200F1841B0ED76E1E0ED66E9F9A9E9A9D8AB8
:100B5200070ECA6E1F0ECB6EFF0EBB6E3C0EBA6E38
:080B62006DDDC8DDFDD7FFD7F2
:100B6A0000C01CF001C01BF002C01AF00CC019F042
:100B7A000DC018F0156ED8CF16F0E0CF17F09EAA68
:100B8A0002D09E9A52DF1750E06E1650D86E153A70
:100B9A0015381CC000F01BC001F01AC002F019C0C1
:080BAA000CF018C00DF0100062
:100BC60010EE1EF0130E006E010E016EB20EF66EE2
:0E0BD6000B0EF76E000EF86E50EC05F01200DC
:020BB200000041
:020BB40000003F
:020BB60000003D
:010BB800003C
:020BB90000003A
:020BBB00000038
:020BBD00000036
:020BBF0029000B
:020BC1005D00D5
:020BC300000030
:020000040030CA
:0D000100011F1EFF8181FF0FC00FE00F40A7
:00000001FF
