:04000000E9EF01F033
:1000080000C016F001C015F09EAA01D0A8D99EA084
:1000180003D09D909E90B0D816C000F015C001F096
:020028001100C5
:0E002A00ACB202D00000FCD750C0ADFF1200F7
:10003800AECF01F0ABA202D0AB98AB8801C000F004
:020048001200A4
:0A004A00000E9EBA010E006E1200B7
:100054007E0E506EE8DF506AE6DF130E506EE3DF6B
:10006400100E506EE0DF010E506EDDDF506ADBDFF4
:10007400506AD9DF506AD7DF506AD5DF506AD3DFC0
:10008400506AD1DFFF0E506ECEDFFF0E506ECBDF15
:10009400FF0E506EC8DFFE0E506EC5DF506AC3DF20
:1000A400506AC1DF4BC050F0BEDF4CC050F0BBDF24
:1000B4004DC050F0B8DF4EC050F0B5DF4FC050F027
:1000C400B2DF4B500C0F006E4C5000264D500026F2
:1000D4004E5000264F500026FF0E00160050FF0819
:0600E400506EA1DF1200C6
:1000EA007E0E506E9DDF506A9BDF130E506E98DFB6
:1000FA00100E506E95DF010E506E92DF506A90DF3F
:10010A00506A8EDF506A8CDF506A8ADF506A88DF55
:10011A00506A86DFFF0E506E83DFFF0E506E80DF5F
:10012A00FF0E506E7DDFFE0E506E7ADF506A78DF6A
:10013A00506A76DF4BC050F073DF4CC050F070DF6E
:10014A004DC050F06DDF4EC050F06ADF4FC050F026
:10015A0067DF4B500C0F006E4C5000264D500026A6
:10016A004E5000264F500026FF0E00160050FF0882
:06017A00506E56DF12007A
:1001800021504D0A14E12250300A10E12350300A68
:100190000DE12B0E4B6E21C04CF022C04DF023C060
:1001A0004EF02B0E4F6EA1DF300E216E5DD025502C
:1001B0005B0A11E129505D0A0EE125C04BF026C013
:1001C0004CF027C04DF028C04EF029C04FF042DF60
:1001D000300E256E49D026503F181CE1275040189C
:1001E00019E12850411816E12A50280A10E12E5032
:1001F000290A0DE12AC04BF02BC04CF02CC04DF069
:100200002DC04EF02EC04FF025DF300E2A6E300E7E
:100210003F6E2AD03F50540A14E14050450A11E184
:100220004150500A0EE12B0E4B6E450E4C6E4F0E98
:100230004D6E4B0E4E6E2B0E4F6E57DF300E3F6ED7
:1002400013D0000E3E1802E1010E3D180DE12B0EF9
:100250004B6E450E4C6E4E0E4D6E4F0E4E6E2B0E6F
:0A0260004F6E43DF3D6A3E6A120054
:10026A00496A4A6A475241E04750FF0AD8A44706FA
:10027A00E7DE0050000A01E1FBD7D9DE00C048F0F2
:10028A0049504324E16E000E4420E26E00C0E6FFAE
:10029A00492A4A504524E96E000E4620EA6EEE507D
:1002AA00481802E14A2A09D04A6A45C0E9FF46C00D
:1002BA00EAFFEE504818D8B44A2A4A504524E96E53
:1002CA00000E4620EA6EEE50000A0EE14A50495CE2
:1002DA00006E016A000E015A00504324E16E01507B
:1002EA004420E26EE66A06D0BDD743C0E1FF44C0AF
:0602FA00E2FFE66A1200BB
:100300000900F5CFE6FF0006FBE10106F9E1120066
:100310002A0E306E000E316E500E326E000E336EAD
:10032000380E346E000E356E000E366E000E376ECF
:100330004A0E386E000E396E000E3A6E000E3B6E9D
:10034000FF0E1D6EFF0E1E6E000E1F6E000E206E45
:10035000AC8A900EAB6E948E949C9EAA03D0AECFC6
:0603600000F0FBD71200C3
:1003660071DE005232E065DE00C03CF000505B0AF0
:100376000DE1210E436E000E446E170E456E000E03
:10038600466E040E476E6EDFF8DE1FD03C507B0AC9
:100396000DE1250E436E000E446E1B0E456E000EDB
:1003A600466E0B0E476E5EDFE8DE0FD03C502B0A22
:1003B6000CE13F0E436E000E446E190E456E000EA4
:0C03C600466E040E476E4EDFD8DE1200BB
:1003D2005D0E176E186A2B0E196E1A6A7D0E1B6E51
:1003E2001C6A190EAF6EAC8492DF820E0C6EDD0EAB
:1003F2000D6E0D2EFED70C2EFCD700000000D08E05
:0E040200F28EF28C9F8A9E9A9D8AFFD7FFD7BA
:020000040030CA
:0D000100011F1EFF8381FF0FC00FE00F40A5
:00000001FF
