:0400000073EF01F0A9
:1000080000C016F001C015F09EAA01D032D99EA0FA
:1000180003D09D909E903AD816C000F015C001F00C
:020028001100C5
:0E002A00ACB202D00000FCD750C0ADFF1200F7
:10003800AECF01F0ABA202D0AB98AB8801C000F004
:020048001200A4
:0A004A00000E9EBA010E006E1200B7
:100054004BC050F0E8DF4CC050F0E5DF4DC050F02D
:10006400E2DF4EC050F0DFDF4FC050F0DCDF1200A3
:100074004BC050F0D8DF4CC050F0D5DF4DC050F02D
:10008400D2DF4EC050F0CFDF4FC050F0CCDF1200B3
:1000940021504D0A14E12250300A10E12350300A55
:1000A4000DE12B0E4B6E21C04CF022C04DF023C04D
:1000B4004EF02B0E4F6EDCDF300E216E5DD02550DE
:1000C4005B0A11E129505D0A0EE125C04BF026C000
:1000D4004CF027C04DF028C04EF029C04FF0B8DFD7
:1000E400300E256E49D026503F181CE12750401889
:1000F40019E12850411816E12A50280A10E12E501F
:10010400290A0DE12AC04BF02BC04CF02CC04DF055
:100114002DC04EF02EC04FF09BDF300E2A6E300EF5
:100124003F6E2AD03F50540A14E14050450A11E171
:100134004150500A0EE12B0E4B6E450E4C6E4F0E85
:100144004D6E4B0E4E6E2B0E4F6E92DF300E3F6E89
:1001540013D0000E3E1802E1010E3D180DE12B0EE6
:100164004B6E450E4C6E4E0E4D6E4F0E4E6E2B0E5C
:0A0174004F6E7EDF3D6A3E6A120006
:10017E00496A4A6A475241E04750FF0AD8A44706E7
:10018E005DDF0050000A01E1FBD74FDF00C048F0F1
:10019E0049504324E16E000E4420E26E00C0E6FF9B
:1001AE00492A4A504524E96E000E4620EA6EEE506A
:1001BE00481802E14A2A09D04A6A45C0E9FF46C0FA
:1001CE00EAFFEE504818D8B44A2A4A504524E96E40
:1001DE00000E4620EA6EEE50000A0EE14A50495CCF
:1001EE00006E016A000E015A00504324E16E015068
:1001FE004420E26EE66A06D0BDD743C0E1FF44C09C
:06020E00E2FFE66A1200A7
:100214000900F5CFE6FF0006FBE10106F9E1120053
:100224002A0E306E000E316E500E326E000E336E9A
:10023400380E346E000E356E000E366E000E376EBC
:100244004A0E386E000E396E000E3A6E000E3B6E8A
:10025400FF0E1D6EFF0E1E6E000E1F6E000E206E32
:10026400AC8A900EAB6E948E949C9EAA03D0AECFB3
:0602740000F0FBD71200B0
:10027A00E7DE005232E0DBDE00C03CF000505B0AF1
:10028A000DE1210E436E000E446E170E456E000EF0
:10029A00466E040E476E6EDFF8DE1FD03C507B0AB6
:1002AA000DE1250E436E000E446E1B0E456E000EC8
:1002BA00466E0B0E476E5EDFE8DE0FD03C502B0A0F
:1002CA000CE13F0E436E000E446E190E456E000E91
:0C02DA00466E040E476E4EDFD8DE1200A8
:1002E6005D0E176E186A2B0E196E1A6A7D0E1B6E3E
:1002F6001C6A190EAF6EAC8492DF820E0C6EDD0E98
:100306000D6E0D2EFED70C2EFCD700000000D08EF1
:0E031600F28EF28C9F8A9E9A9D8AFFD7FFD7A7
:020000040030CA
:0D000100011F1EFF8381FF0FC00FE00F40A5
:00000001FF
